:020000040800F2
:100000003809022045030008690300086B03000853
:100010006D0300086F030008710300080000000072
:100020000000000000000000000000007303000852
:10003000750300080000000077030008790300083A
:100040007B0300087B0300087B0300087B03000898
:100050007B0300087B0300087B0300087B03000888
:100060007B0300087B0300087B0300087B03000878
:100070007B0300087B0300087B0300087B03000868
:100080007B0300087B0300087B0300087B03000858
:100090007B0300087B0300087B0300087B03000848
:1000A0007B0300087B0300087B0300087B03000838
:1000B0007B0300087B0300087B0300087B03000828
:1000C0007B0300087B0300087B0300087B03000818
:1000D0007B030008B92000087B0300087B030008AD
:1000E0007B0300087B0300087B0300087B030008F8
:1000F0007B0300087B0300087B0300087B030008E8
:100100007B0300087B0300087B0300087B030008D7
:100110007B0300087B0300087B0300087B030008C7
:100120007B0300087B0300087B0300087B030008B7
:100130007B0300087B0300087B0300087B030008A7
:100140007B0300087B0300087B0300087B03000897
:100150007B0300087B0300087B0300087B03000887
:100160007B0300087B0300087B0300087B03000877
:100170007B0300087B0300087B03000800000000ED
:100180007B0300087B0300087B0300087B03000857
:100190007B0300087B0300087B0300087B03000847
:1001A0007B0300087B0300087B0300087B03000837
:1001B0007B0300087B0300087B0300087B03000827
:1001C0007B0300087B030008000000007B0300089D
:1001D0007B0300087B0300087B0300087B03000807
:1001E0007B0300087B0300087B0300087B030008F7
:1001F0007B0300087B03000800F002F800F092F88F
:100200000AA090E8000C82448344AAF10107DA4571
:1002100001D100F087F8AFF2090EBAE80F0013F031
:10022000010F18BFFB1A43F0010318470824000010
:1002300028240000103A24BF78C878C1FAD85207A1
:1002400024BF30C830C144BF04680C607047000050
:100250000023002400250026103A28BF78C1FBD8CF
:10026000520728BF30C148BF0B6070476E2900F0AD
:100270001382702900F05F83662902F05881652996
:1002800002F05581672902F05281612902F0518103
:1002900003681B0A28BF41F08001692900F0C08172
:1002A000642900F0BD81752900F0BA816F2900F042
:1002B000ED82782900F02B83E92900F08782E42978
:1002C00000F08482F52900F08182EF2900F0EA82B3
:1002D000F82900F02A830368DB0928BF41F0800178
:1002E000632900F0F781732900F0FC81E32900F015
:1002F0007987F32900F07E87002070471FB502F050
:1003000011F900F0CDFF04000020002102F0F4F804
:10031000401C60600020002102F0D8F8E0601FBDA2
:1003200010B510BD00F08EFF1146FFF7E7FF01F09A
:10033000B5FF01F067F803B4FFF7F2FF03BC01F06B
:100340001AFF0000DFF84000016841F4700101600D
:10035000BFF34F8FDFF83400016821F040410160A6
:10036000BFF36F8F0A480047FEE7FEE7FEE7FEE7B0
:10037000FEE7FEE7FEE7FEE7FEE7FEE70548064983
:10038000044A064B7047000088ED00E034EF00E0BF
:10039000F901000838010220380902203801022042
:1003A000704700000A46014900F0A0B9040002208D
:1003B0000FB4044910B503AA029800F097F910BCD5
:1003C0005DF814FB0400022070B50C460546012AB6
:1003D00005D02878800600D5EA69002302E00123D1
:1003E00005E05B1C934202D2E05C0028F9D1A869C9
:1003F000E618C01AA861286A18442862284600F046
:10040000D5F804E0D5E9012114F8010B9047B44276
:10041000F8D3284600F0E0F870BD00002DE9F05F49
:10042000894604464FF0000ADFF874B1FB44C0F877
:1004300020A02046E1688847002874D0252806D0EF
:10044000D4E901219047206A401C2062F1E7002690
:100450005F462046E16888472028054607DB312DA6
:1004600005D2781910F8200C08B10643F1E7B0075F
:1004700001D526F00406C4F81CA00027C4F818A073
:100480002A2D09D0284601F06FFE38B304EB870807
:10049000303DC8F8185019E059F8041B204604EB09
:1004A00087029161E1688847012F054618D1E0690C
:1004B000002820DA26F020061DE0D8F8180000EB0E
:1004C000800005EB40003038C8F818002046E1688D
:1004D0008847054601F048FE0028EED1012F0AD0DA
:1004E0002E2D08D12046E16888477F1C0546022F43
:1004F00046F02006C4DBA069002803DA404246F03B
:100500000106A061F00701D026F010066C2D0BD07B
:10051000682D09D04C2D39D06A2D35D0742D35D0A9
:100520007A2D33D016E038E0E1682F462046884720
:10053000B842054609D16C2F26D04FF48060E1689F
:10054000064320468847054604E06C2F1AD04FF436
:10055000807006430DB3A5F14100192802D820355B
:1005600046F400664A462946204626604E46FFF776
:100570007DFE80B101280BD0F61D26F0070000F1AA
:10058000080956E74020E4E78020D8E70020D6E7B6
:1005900006F104094DE7284652E7206ABDE8F09FBE
:1005A00006210000704770477047704770B50446D9
:1005B00085690068C10601D5302600E02026C00705
:1005C00007D070BDD4E9012130469047206A401C15
:1005D00020626D1EF6D570BD70B504468569007841
:1005E000C00707D170BDD4E9012120209047206ABF
:1005F000401C20626D1EF6D570BD09684A0501D504
:1006000040B27047C905FCD500B2704709684A0579
:1006100001D5C0B27047C905FCD580B27047000053
:100620002DE9F0410646002410687529314616A5CB
:1006300010D0FFF7E2FF002802DA404213A507E0DE
:1006400031688A0701D512A502E0490704D511A532
:10065000012401E0FFF7DAFF00210A2206F1240756
:1006600009E0B0FBF2FCB0FBF2F302FB1C003030FF
:1006700078541846491C0028F3D123462A463046B0
:10068000BDE8F04100F0A7B9000000002D00000017
:100690002B0000002000000011680268006A53056A
:1006A00001D508700AE0D30501D5088006E01306DD
:1006B00003D5C217C1E9000200E0086001207047BD
:1006C00010B5436913B1AFF3008001E0FFF77CFE82
:1006D000012010BD127800F124010A7000224A7036
:1006E0000122EDE711684FF0FF32E9E7074B70B5E3
:1006F0000D467B4400F059FD0446284600F07EFD7F
:1007000010B14FF0FF3070BD204670BD8B1B000054
:100710002DE9FF5F15468A460446DFF8AC80F844B1
:100720000027D8E900103E46CDE9001010E03AF865
:1007300016106A4602A800F065FD411C07D021781A
:10074000890603D5E269391891420DD80744761C11
:100750002078800602D5E069B84205DDAE42E6DBCE
:100760003AF816000028E2D1A069C01BA06120461B
:10077000FFF71CFFD8E90010CDE90010002017E0BA
:100780003AF818106A4602A800F03CFDB0F1FF3FAD
:1007900081460BD000250DF1080B05E0D4E90121BD
:1007A0001BF8050090476D1C4D45F7D308F101007B
:1007B000B0428046E4DB206A384420622046FFF7DE
:1007C0000BFFBDE8FF9F0000261E00002DE9F04151
:1007D0008046D21D22F007020025D2E90002F52949
:1007E00015A614D0011E72F1000106DA0023D0EB29
:1007F000030063EB020211A608E0D8F800108B0793
:1008000001D50FA602E0490701D50EA60125114624
:10081000002408F1240704E000F098F830323A553B
:10082000641C50EA0102F7D12B463246214640466D
:10083000BDE8F04100F0CFB8000000002D0000003E
:100840002B0000002000000030B4002100F124043F
:1008500008E002F00705D208303542EA4372DB08AF
:100860006554491C52EA0305F3D10468002310A221
:10087000250708D504F020040C4304D0C4690123E3
:100880000CA2641EC46130BC00F0A5B810B50446CB
:1008900021461068FFF7BAFE02462046BDE8104028
:1008A0000023D1E7D21D22F00701D1E90023CBE7D5
:1008B0000000000030000000F0B40D46018809057A
:1008C00002D5214C7C4402E01F4C7C440E340021B4
:1008D00000F1240608E002F00F071209E75D42EA82
:1008E00003721B097754491C52EA0307F3D10278BB
:1008F0000023120704D5702D06D009B1022311344C
:100900002246F0BC00F067B801231034F8E770B558
:1009100004460D4621461068FFF778FE0246294638
:100920002046BDE870400023C6E7D21D22F0070331
:10093000D3E90023C0E70368126843F02003036093
:100940000823C3610023B7E7881C000030B5B0F16D
:100950000A024FEA900E71F100034EEA817EB0EB7D
:100960000E0061EB91014FEA101E4EEA017E10EB82
:100970000E0041EB11114FEA102E4EEA016E10EB02
:100980000E0041EB11214FEA104E4EEA014E10EBE2
:100990000E0041EB1141401841F100014FEAD00037
:1009A00040EA41704FEAD10110EB80054FEA810423
:1009B00044EA907444EB01046D1944EB0404521BA7
:1009C000A3414FF0000348BF0A3200D530BD401CA0
:1009D00041F1000130BD2DE9F0470D4699469246A0
:1009E000044600F124080168880604D5E06921F076
:1009F0001001216000E00120A84201DD471B00E05A
:100A00000027A1697A1902EB0900081AA061207871
:100A1000C00602D42046FFF7C9FD002608E0D4E94D
:100A200001211AF806009047206A401C761C2062BB
:100A30004E45F4DB2078C0060AD52046FFF7B6FD08
:100A400006E0D4E9012130209047206A401C206252
:100A5000381EA7F10107F4DC07E0D4E9012118F8FA
:100A600005009047206A401C2062281EA5F1010560
:100A7000F3DC2046FFF7B0FD2078000602D5022007
:100A8000BDE8F0870120FBE770472DE9FF4F0C46DA
:100A90001E464FF0FF378BB0D2E90001DDF86080D1
:100AA0000A908A46C1F30A5505B93D460021084619
:100AB0004FF00000BAF1000F00F4400005DA00EB3F
:100AC00080004FF4400101EA50004FEA9059B9F11B
:100AD000010F00DDB9460A9850EA4A000ED044F6EC
:100AE0001050A5F2FF3545432F14B8F1000F1ED06A
:100AF0007542291E1EDDC9F100021CE0B8F1010F8C
:100B00004FF0000001D0302103E0F24305E0215412
:100B1000401CB042FBDB30460022002121540B99DF
:100B2000C1F80880C1E900200FB0BDE8F08FBD1BFF
:100B30006D1CDEE74A4600DA694206A800F0F4FBC5
:100B400006AB93E8070003AB83E8070050460A9919
:100B500000F09AFC8DE80700A0F500501F380090C7
:100B60000398002D09DD42F21F014A46084403A9FB
:100B70000390684600F0F9FE08E0A0F500504A46F0
:100B80001F3803A90390684600F003FF8DE80700B3
:100B90000004000C03D04FF0FF30410800E0104685
:100BA000B8F1000F03D00022009215461EE0751E1A
:100BB00005D4FFF7CBFE303262556D1EF9D5B34632
:100BC0000122084302D000227F1C04E02078302854
:100BD00001D100227F1E002A099786D01DE0112D29
:100BE00007DAFFF7B3FE303262556D1C50EA01029E
:100BF000F5D1084302D00098C8B10EE00021681E6C
:100C000005E0235C625C63542254401E491C81420F
:100C1000F7DBAB46A81B401E0990002004F80B0030
:100C20000B98099AC0F80880C0E9002B7CE71126D0
:100C30004FF0000859E72DE9F04F88460446D21DD1
:100C400022F0070191B0D1E90001CDE90A0101F0DC
:100C500073FA02460B98C00F01D02D2007E02068E0
:100C6000810701D52B2002E0202101EAC000032AE0
:100C7000099001D0072A05DB03464146204600F0D3
:100C800013FB0BE12078800601D5E06900E0062027
:100C9000B8F1650F814606D0B8F1660F18D0B8F1EB
:100CA000670F70D131E00020B9F1110F009001DB26
:100CB000112301E009F101030AAA01A90CA8FFF719
:100CC000E4FEDDE90C70002609F10105834647E0EA
:100CD00001204B4600904FF000470AAA01A90CA83A
:100CE000FFF7D3FEDDE90DB00C995D46002610B983
:100CF00009F101000D18B9EB050003D4C0F1FF366E
:100D000009F10105A5EB09002BE0B9F1010F01DAAA
:100D10004FF001090020B9F1110F0090484601DDA4
:100D2000112300E003460AAA01A90CA8FFF7ADFEB3
:100D3000DDE90C704D4600268346207800070AD472
:100D4000AB4500DA5D4601A8012D04DD411911F81B
:100D5000011C302907D04F4502DA17F1040F04DADD
:100D6000012082460FE06D1EEEE7002F02DCED1B36
:100D70003E4403E0781CA84200DD7D1CB81B00F156
:100D8000010A4FF000472078000703D4AA4501DB91
:100D90004FF0FF3A0021B7F1004F0DF143088DF8F5
:100DA000431024D002202B23002F01DA7F422D2371
:100DB0000A21021EA0F1010000DC5FB197FBF1FCEB
:100DC00097FBF1F201FB1C7C17460CF1300C08F884
:100DD00001CDEEE7A8F1010003702188090501D5D6
:100DE000452100E06521A0F1010800F8011C0998E7
:100DF0000FA9A1EB0807FF1D00B10120411901EB6C
:100E0000EA70A1693844081A401EA0612078C00623
:100E100002D42046FFF7CAFB099828B1D4E9012182
:100E20009047206A401C20622078C00622D52046C8
:100E3000FFF7BCFB1EE0002E04DBB34502DD01A87A
:100E4000805D00E03020D4E901219047206A401CF9
:100E50002062761CAAF101005FEA000A0AD100F0C4
:100E60001FFAC0680168405CD4E901219047206AFC
:100E7000401C2062281EA5F10105DCDC07E0D4E956
:100E8000012118F8010B9047206A401C2062381E8F
:100E9000A7F10107F3DC2046FFF79EFB032011B00A
:100EA00043E600002DE9F04F04460D46D21D22F026
:100EB000070089B0D0E900974846394601F03CF96F
:100EC0000246F80F01D02D2307E02068810701D5E5
:100ED0002B2302E0202101EAC0038DF820300BB162
:100EE000012000E00020032A824601D0072A04DB0B
:100EF0002946204600F0D8F93FE12078800601D449
:100F00000D2500E0E569C7F30A560D2D49DA0021E9
:100F10004FEA175B08464FF00000002F00F4400036
:100F200007DA00EB80004FF4400100EBD07001EADB
:100F300060008115012901DD4FF0FF3100224FEAE9
:100F4000850CBCF1180F06D31346ACF118004FF016
:100F50008052C24003E04FF4801323FA0CF30CF1EB
:100F60000C0CBCF1200F04D3ACF1200C09FA0CF0EE
:100F700001E007FA0CF000294FF0004801DD18B934
:100F80000FE00ED140450CD319EB02095F4121B9A6
:100F9000404502D19F4329EA0209BBEB175F00D00D
:100FA000761C2088000502D57B48784402E07A4808
:100FB0007844193808AA302302F80A30037C0AF171
:100FC0000101002E0AF1020A53546A4602DC4FF076
:100FD000300101E04FF031014FF001088DF80010B1
:100FE00002D0A6F2FF3603E059EA470100D06B4E6B
:100FF000002D02DC2178090704D54FF002082E21CC
:101000008DF80110C44600210BE0C7F303433F01F4
:10101000C35C491C6D1E02F80830052908F101085F
:1010200001DA002DF1DC00210CE000EB1973491C02
:101030001B786D1E082902F808304FEA091908F1DB
:10104000010801DA002DF0DC21688B0602D516E0DC
:10105000A8F10108E04505DD02EB080313F8013CA7
:10106000302BF5D0B8F1000F09DD02EB080313F8BF
:10107000013C2E2B03D1090701D4A8F10108002D52
:1010800005DD3E2102F808106D1E08F10108407CC4
:10109000002E02F8080008F1010804DA2D2076423B
:1010A00002F8080002E02B2002F808000A214FF4A1
:1010B0007A70864208F101080BDB96FBF0F33033BF
:1010C00002F8083096FBF0F308F1010800FB136604
:1010D00001E0642E0CDB642096FBF0F3303302F861
:1010E000083096FBF0F308F1010800FB136601E0FD
:1010F0000A2E06DB96FBF1F0303002F8080008F10A
:10110000010896FBF1F001FB1060303002F8080096
:10111000A16908F1010808EB050202EB0A00081AB0
:10112000A0612078C00602D42046FFF73FFA216A6A
:1011300008AE01EB0A00206204E0D4E9012116F8B0
:10114000010B9047BAF1010AF7D22078C00602D508
:101150002046FFF72BFA6E4609E016F8010B3E28F1
:101160000FD0D4E901219047206A401C2062B8F1D9
:101170000108F2D22046FFF72FFA09B00320BDE89C
:10118000F08F206A2844206203E0D4E90121302056
:1011900090476D1EEBD3F8E7DD15000002FCFFFF62
:1011A00001694A1C02610878704700B58FB0CDE92B
:1011B00001310021059105497944CDE9031011461B
:1011C0006846FFF72BF90FB000BD0000E5FFFFFFF9
:1011D00010B5436913B1AFF3008001E0FFF798FA4F
:1011E000012010BD128800F1240182840022C284F3
:1011F0000122EDE711684FF0FF32E9E7007B00F0D4
:101200008000704770B516460C46054600F040F861
:10121000036893F80101012806D0FF2C0FD8185D50
:1012200068B101202C7070BDD3F807013246214609
:1012300003F2071303442846BDE8704018474FF0F7
:10124000FF3070BD754600F0E7F8AE460500694610
:10125000534620F00700854618B020B5FFF78EF8FA
:10126000BDE820404FF000064FF000074FF00008A7
:101270004FF0000B21F00701AC46ACE8C009ACE828
:10128000C009ACE8C009ACE8C0098D467047000051
:1012900010B500F005F8001D10BD00BF5D12000084
:1012A00000487047F40002202DE9F0411F46044633
:1012B00003260168072A01F4006004DB08B116A5C3
:1012C00005E016A503E008B115A500E015A521F07D
:1012D00010002060A069C01EA0610FB1401EA06177
:1012E0002046FFF763F94FB1D4E901213846904712
:1012F000206A401C2062C01C206206E0206AFAE7D7
:10130000D4E9012115F8010B9047761EF8D220464A
:10131000FFF762F9BDE8F0814E414E006E616E004C
:10132000494E4600696E66002DE9F0478146164633
:101330008AB0334878440DC88DE80D0030487844B1
:10134000801C03AC0DC884E80D0041F69B300844B6
:10135000372190FBF1F290FBF1F5A5F1800501FB3F
:1013600012041B3C02D56442012000E00020DFF89B
:1013700090A080460027FA44AAF1BE0A0DE0E007DB
:1013800009D03246684607EB47010AEB810100F0BD
:1013900000FB8DE8070064107F1C002CEFD1184F74
:1013A0007F44AC3F18E0E80714D007EB04100DF1C0
:1013B000180A90E80E008AE80E00C068F04201D1D9
:1013C00098190890324606A903A800F0E2FA03AB88
:1013D00083E807006D10641C002DE4D13246694695
:1013E000B8F1000F03A802D000F0BFFA01E000F04E
:1013F000D0FAC9E90001C9F808200AB0BDE8F087B1
:10140000E412000010B50446AFF300802046BDE8AA
:101410001040FEF790BF000000487047D400022043
:101420004FF0013C50F8042B51F8043B9A4215D17F
:10143000A2EB0C03934313EACC130BD150F8042B0B
:1014400051F8043B9A4209D1A2EB0C03934313EAEF
:10145000CC13E7D04FF00000704700BFD01A01BA9C
:10146000B1FA81F101F0180122FA01F0CB40C1F18B
:101470002001DBB2C0B2C01A2CFA01F3D11A914399
:1014800011EAC311E6D170475FEA400C08BF91F042
:10149000000F4FEA8C234FEAC12243EA51514FEA31
:1014A0001C5018BF00F5F0404FEA300018BF41F063
:1014B00000415FEA6C5C00F02980BCF1FF3F08BF8F
:1014C00040F080407047130C06BF12044FF0100C20
:1014D0004FF0000C130E04BF12020CF1080C130F96
:1014E00004BF12010CF1040C930F04BF92000CF125
:1014F000020CD30F04BF52000CF1010C11464FF047
:101500000002A0F11F00A0EB0C00704711F0004F8B
:1015100008BF704731F000413FF4D5AF0B0C06BF58
:1015200009044FF0100C4FF0000C0B0E04BF090221
:101530000CF1080C0B0F04BF09010CF1040C8B0F0C
:1015400004BF89000CF1020CCB0F04BF49000CF161
:10155000010CCCF12003A0EB0C0022FA03F302FAF9
:101560000CF241EA030100F10100704720F07F4CCA
:1015700080EA030023F07F47ACEB070303F57C53BD
:1015800000F0004003F1FF032DE980494FEA154BBD
:1015900009B44FEA144325EA0B4E24EA03480FF23C
:1015A000042606EB132749083E785FEA320203FB64
:1015B0000667C7F5000707FB06F64FEA54374FEA00
:1015C000D64606F1020607FB066CCCF1005C4FEA3A
:1015D0001C472CEA074C07FB06F40CFB06F504EB52
:1015E00015464FEA961634BF00204FF000404FEAF0
:1015F000D13706FB07FC4FEA1C4C0CFB0BF7D21B48
:1016000003FB0CF761EB07010CFB0EF7B0EB074097
:1016100072EB17420CFB08F734BFA2EB0742B2EBA8
:10162000074261EB17414FEA0C444FEA910706FB72
:1016300007FC4FEA1C4C0CFB0BF7B0EBC74072EBFE
:10164000573203FB0CF734BFA2EBC742B2EBC742E1
:1016500061EB57310CFB0EF7B0EBC70072EB577222
:101660000CFB08F734BFA2EBC702B2EBC70261EB79
:101670005771039F4FEA816141EA921104EBCC0458
:101680004FEAD1374FEA826206FB07FC42EA90122A
:101690004FEA80604FEA1C4C0CFB0BF7D21B03FB9C
:1016A0000CF761EB07010CFB0EF7B0EB074072EB98
:1016B00017420CFB08F734BFA2EB0742B2EB07421C
:1016C00061EB17414FEA8C554FEA910704EB9C24DC
:1016D00006FB07FC4FEA1C4C0CFB0BF7B0EBC740BA
:1016E00072EB573203FB0CF734BFA2EBC742B2EBED
:1016F000C74261EB57310CFB0EF7B0EBC70072EB42
:1017000057720CFB08F734BFA2EBC702B2EBC7025B
:1017100061EB577115EB4C254FEA816141EA92115B
:101720004FEA82624FEAD13742EA901206FB07FC89
:1017300044F100044FEA80604FEA1C4C0CFB0BF7AD
:10174000D21B03FB0CF761EB07010CFB0EF7B0EBB0
:10175000074072EB17420CFB08F734BFA2EB0742BD
:10176000B2EB074261EB174115EB1C154FEA8131D3
:1017700041EA92414FEA823242EA90424FEA803097
:101780004FEA0C7644F1000448EA03434EEA0B4862
:101790004FF0000EB2EB080C71EB030724BF62465A
:1017A00039464EEB0E0E4FF0000B001852414941E6
:1017B0004BEB0B0BB2EB080C71EB03077BF1000B4F
:1017C00024BF624639464EEB0E0E4FF0000B001858
:1017D000524149414BEB0B0BB2EB080C71EB030789
:1017E0007BF1000B24BF624639464EEB0E0E51EAE8
:1017F000020718BF46F0010616EB0E7655F10002FF
:1018000054F1000103D5BDE88901BDE80088BDE8B9
:101810008901BDE80048B619524141EB0101A3F12D
:101820000103704780807F7E7D7C7B7A7978777634
:1018300076757473727171706F6E6E6D6C6C6B6AAD
:101840006A6968686766666564646363626161604B
:10185000605F5F5E5E5D5D5C5C5B5B5A5A595958C8
:101860005857575656555555545453535252525132
:10187000515050504F4F4F4E4E4D4D4D4C4C4C4B88
:101880004B4B4A4A4A4949494848484747474746CF
:10189000464645454544444444434343434242420B
:1018A00042414141002B26D4770021D01CB54FEA9C
:1018B000370703B44FF010004FF010014FF0000055
:1018C0000FBCBDE810400BF1010BBBF1010F08BFCD
:1018D0005FEA170722BF12F1010211F101014FF077
:1018E000004143F1000300F0004043EA000070476C
:1018F000F9D35708DAE746EA064613F1400F4FEAF4
:1019000016461FDD13F1200FDFBF16430A460021E4
:1019100020335B42C8D0C3F1200746EA064602FAEC
:1019200007F74FEA164646EA0706C3F1200722FAF0
:1019300003F201FA07F721FA03F14FF0000342EA3C
:101940000702B1E746EA020646EA06464FEA1646AD
:1019500046EA0106BCBF46EA0646360C4FF00003D5
:101960004FF000024FF000019EE72DE9C04893467A
:1019700030B491E8380007C831EA400C48BF34EA77
:10198000430C03D5FFF7F2FDFFF78CFFF0BCBDE879
:1019900000882DE9C048934630B491E8380007C864
:1019A00010F0804F08BF13F0804F03D100F005F80E
:1019B000FFF778FFF0BCBDE8008820F07F4780EAA1
:1019C000030023F07F4C07EB0C03A3F57C5300F0DE
:1019D0000040A3F1FE0392F0000F00F0B38095F0F9
:1019E000000F00F077802DE901494FEA11404FEADE
:1019F000144621EA004800FB06FC24EA064708FBDF
:101A000006F607FB08F800FB07F718EB06484CEB57
:101A1000164C4FEA124B18EB07484FEA15464CEBB1
:101A2000174022EA0B4E0BFB06FC25EA06470EFB8D
:101A300006F607FB0EFE0BFB07F71EEB064E4CEB04
:101A4000164C4FF000061EEB074E4CEB174B18EBF5
:101A50000B0840F1000018EB0E0B58EB000840F1AA
:101A600000008F1A4FF000013CBFC943661B14BF32
:101A7000B5EB040C00213CBFC943F61B4FEA1744E9
:101A80004EEA8E0E27EA04454FEA1C4704FB076224
:101A90002CEA074C05FB07F70CFB05F604FB0CFCD6
:101AA00016EB074642EB174216EB0C4642EB1C4284
:101AB0001BEB060658EB0202414146EA9E0601D5A1
:101AC000BDE80189B619524141EB0101A3F10103BF
:101AD000BDE801894FEA14454FEA114724EA05465B
:101AE00021EA074C05FB07F406FB07F70CFB06F1A0
:101AF00005FB0CFC11EB074144EB17444FEA12477E
:101B000011EB0C4144EB1C4422EA074C05FB07F2A5
:101B100006FB07F70CFB06F605FB0CFC16EB07466D
:101B200042EB174216EB0C4642EB1C456A1854F187
:101B3000000148BF7047B619524141EB0101A3F1C2
:101B40000103704795F0000F37D04FEA11424FEA7A
:101B5000144721EA024624EA074C02FB07F106FB80
:101B600007F70CFB06F402FB0CFC14EB074441EBFB
:101B700017414FEA154714EB0C4441EB1C4125EA91
:101B8000074C02FB07F506FB07F70CFB06F602FB0A
:101B90000CFC16EB074645EB174516EB0C4645EBE0
:101BA0001C42121951F1000148BF7047B619524149
:101BB00041EB0101A3F1010370474FEA14454FEADD
:101BC000114724EA054621EA074C05FB07F106FB0D
:101BD00007F70CFB06F24FF0000605FB0CFC12EBBE
:101BE000074241EB174112EB0C4251EB1C4148BF3D
:101BF0007047921841EB0101A3F101037047000007
:101C000010B500BF00BF00BF00BF00BFBFF34F8FC4
:101C100000BF00BF00BF00BF00BF00BFBFF36F8F9A
:101C200000BF00BF00BF00201149086011480068D4
:101C300040F400300F49086000BF00BF00BFBFF391
:101C40004F8F00BF00BF00BF00BF00BF00BFBFF38A
:101C50006F8F00BF00BF00BF00BF00F01DF9044838
:101C60004C30006840F0040001494C31086010BD60
:101C700050EF00E014ED00E030B5CC1000F120038F
:101C800053F824304C07E50E0F24AC40A343CD108D
:101C900000F1200444F82530CC1000F1200353F863
:101CA00024304C07E40E02FA04F42343CD1000F173
:101CB000200444F8253030BD02F001030BB18161EE
:101CC00001E00B04836170472DE9F0470C46DDE924
:101CD0000867002100258C4600BF60E04FF0010836
:101CE00008FA01F504EA050CAC4557D1D0F800809C
:101CF0004FEA410A4FF0030909FA0AF928EA0908EC
:101D0000C0F80080D0F800804FEA410902FA09F9D2
:101D100048EA0908C0F80080012A01D0022A27D128
:101D2000D0F808804FEA410A4FF0030909FA0AF98E
:101D300028EA0908C0F80880D0F808804FEA41096D
:101D400006FA09F948EA0908C0F80880D0F80490B2
:101D50004FF0010808FA01F829EA0809C0F80490D0
:101D6000D0F8048003FA01F948EA0908C0F80480B1
:101D7000D0F80C804FEA410A4FF0030909FA0AF93A
:101D800028EA0908C0F80C80D0F80C804FEA410915
:101D900007FA09F948EA0908C0F80C80491C10291B
:101DA0009CD3BDE8F08700001CB50D48006840F0EA
:101DB00002000B4908600120032100230246CDE9FF
:101DC00000100848FFF780FF012202210548FFF7B5
:101DD00073FF012211460348FFF76EFF1CBD000090
:101DE00030380240000402402DE9F04107468846A1
:101DF00014461D46284600F033F8C5F1040007FAE2
:101E000000F60F20284100EA0800064306F00F06FE
:101E1000E21704EBD2625211920002F1E022D2F8F2
:101E200000212146E31704EBD3635B11A4EB431CB1
:101E3000012303FA0CF31A432046E31704EBD363A0
:101E40005B119B0003F1E023C3F800210348005D10
:101E500040EA061001490855BDE8F08100E400E0C1
:101E60000146072323EA01021202054B18684FF6C8
:101E7000FF031840034B18431043014B1860704791
:101E80000CED00E00000FA054A0A52020243014B41
:101E90001A60704708ED00E010B50023234C236062
:101EA00000BF00BF00BFBFF34F8F00BF00BF00BF28
:101EB000231F1868C0F34E3100BFC0F3C90200BF32
:101EC00043F6E07303EA41134FF0404404EA82749E
:101ED0002343174C236000BF00BF131EA2F1010271
:101EE000EED10B1EA1F10101E7D100BF00BF00BF81
:101EF000BFF34F8F00BF00BF00BF0C4B703B1B6890
:101F000043F48033094C703C236000BF00BF00BF26
:101F1000BFF34F8F00BF00BF00BF00BF00BF00BFB7
:101F2000BFF36F8F00BF00BF00BF10BD84ED00E0A6
:101F300060EF00E02DE9F04104460D4616461F46CD
:101F40001548006840F0010013490860002012495C
:101F50000831086010480068104908400E490860C0
:101F60000F48091D0860081F006820F48020091F21
:101F70000860002008490C310860FFF741FE3B462D
:101F800032462946204600F00DF800214FF000604F
:101F9000FFF77AFFBDE8F08100380240FFFFF6FE50
:101FA00010300024F0B504460D46002100203F4EBD
:101FB000366846F480363D4F3E6001E04E1CB1B2BB
:101FC0003A4E366806F400361EB941F6FF76B14245
:101FD000F4DB41F6FF76B14201D1012065E0334EDA
:101FE0004036366846F08056304F40373E60304EBF
:101FF000366846F440462E4F3E603E46366846F40C
:1020000080363E603E46366846F400363E60274ED7
:102010000836366846F41446244F08373E60234E8F
:10202000366826F08076214F3E6045EA8416012707
:10203000C7EB520746EA074646EA036646F48006BF
:102040001A4F3F1D3E603E1F366846F080763F1FA8
:102050003E6000BF154E366806F00076002EF9D0BF
:10206000144E366846F48076124F3E603E4636681F
:1020700046F400763E603E46366846F007063E600F
:102080000A4E0836366826F00306084F08373E60C9
:102090003E46366846F002063E6000BF034E0836F4
:1020A000366806F00C06082EF8D1F0BD0038024064
:1020B00000700040003C02401C49C96901F0200149
:1020C00009B31A49496AC8B21949098801F400419B
:1020D000C9B91749098801F4804161B10A2803D0C0
:1020E0000021134A118020E01149098841F4004180
:1020F0000F4A118019E00D2806D10D49098841F4D5
:1021000080410B4A118010E009490988C1F30D0193
:10211000084A505406490988491C054A118011464D
:102120000988C72901DD0021118070470010014096
:10213000080002200C00022003B40198410000981E
:1021400050EAC12018BF04204A0D18BF40F001001A
:1021500040F2FF72B2EB515F08BF40F0020001286D
:1021600008BF052002B0704730380A2801D201208C
:1021700070470020704700BF704700000FB438B5AB
:102180000546012D01D10BA404E0022D01D10BA4C1
:1021900000E00CA406A8009021460CA0FEF708F968
:1021A00000990598FEF7FEF80020009038BC5DF815
:1021B00014FB0000496E666F000000004572726FEC
:1021C0007200000044656275670000005B25735D66
:1021D000000000004FF0E021096921F004014FF0F8
:1021E000E0221161C21700EB5272C2F3C702054B25
:1021F0001A704FF47A714143C1F3CF01024A118042
:1022000070470000000002200200022070B5044662
:102210004FF4077094FBF0F0C6B24FF4077094FBD4
:10222000F0F100FB114085B205E04FF4077000F0BB
:1022300009F8701EC6B2002EF7D115B1284600F07D
:1022400001F870BD01460D4A12884A434FF0E02361
:102250005A6100229A6101221A6100BF4FF0E02208
:10226000106900F001021AB100F48032002AF5D0A2
:1022700000224FF0E0231A619A61704702000220A9
:1022800000BF054AD26902F04002002AF9D0C2B26A
:10229000014B9A62704700000010014000240127A2
:1022A000A0460923022219214FF4D870FFF742FEFD
:1022B000D820FFF78FFF4FF4E1316C2000F0A8F831
:1022C000FFF772FD424628A10120FFF757FF4AE0C1
:1022D0002B48008800F40040E0B12948067829A086
:1022E000FEF766F800250CE02B48405D2B4988621C
:1022F00000BF2A48C06900F040000028F9D0681CDF
:10230000C5B2B542F0DB26A0FEF752F800201C490A
:10231000088028E0601C84B241F2883094FBF0F120
:1023200000FB114028B920A0FEF742F82AA0FEF7D2
:102330003FF8C82094FBF0F100FB114010B92CA02D
:10234000FEF736F81E2094FBF0F100FB114038B97F
:1023500087F001000746024602212C48FFF7ACFC3B
:102360000A20FFF753FFB3E72564206170702069EE
:102370006E6974207375636365737366756C0000B2
:10238000080002200D0AC4FAB7A2CBCDB5C4CFFB1A
:10239000CFA2CEAA3A0D0A000C0002200010014084
:1023A0000D0A0D0A000000000D0A414C49454E542B
:1023B000454B20B0A2B2A8C2DE53544D333246344E
:1023C0002F4637BFAAB7A2B0E520B4AEBFDACAB570
:1023D000D1E90D0A00000000D5FDB5E3D4ADD7D397
:1023E00040414C49454E54454B0D0A0D0A0D0A001B
:1023F000C7EBCAE4C8EBCAFDBEDD2CD2D4BBD8B350
:10240000B5BCFCBDE1CAF80D0A00000000040240A2
:102410007CB505460C462948684300EB5400B0FBE8
:10242000F4F62748006840F0010025490860244878
:102430001430006840F01000214914310860012078
:10244000022100230A46CDE900104FF4C0611D4867
:10245000FFF73AFC072209211A48FFF70DFC072273
:102460000A211848FFF708FC1748C66000201649E3
:10247000086008460068086008460068086008466A
:10248000006808600846006840F0080008600846D8
:10249000006840F0040008600846006840F0200032
:1024A00008600223252203210846FFF79DFC064809
:1024B000006840F00100044908607CBD40420F0004
:1024C00030380240000002400010014010B50029E1
:1024D0000AD00878002807D005487844FEF7A0FF06
:1024E000002801D0002010BD0248784410BD000033
:1024F0007A0100007201000010B500290AD00878A6
:10250000002807D005487844FEF78AFF002801D04C
:10251000002010BD0248784410BD00006A01000090
:10252000620100004FF04070E1EE100A7047FEF7C4
:1025300082BBFEF7B7BC04000008000000000000EA
:102540000002000100001000000000000000000078
:1025500030313233343536373839414243444546D9
:1025600040305800303132333435363738396162D3
:102570006364656640307800303132333435363745
:1025800038396162636465667870003031323334A3
:1025900035363738394142434445465850000000EB
:1025A00002400000000000A0000000000540000004
:1025B000000000C8000000000C4000000000409C2B
:1025C00000000000194000000020BCBE0000000018
:1025D00034400000BFC91B8E00000004B54000005D
:1025E000504BCFD06607E2CF010000006C410000E5
:1025F0003E8251AADFEEA73401000000D94200005C
:10260000DCB5A0E23A301F97FFFFFFFFB4450000A2
:10261000FD25A0C8E9A3C14FFFFFFFFFFF3F00005A
:102620000000008000000000FF3F0000000000806C
:102630000000000080270008000002200C000000BD
:10264000340200088C2700080C0002202C0900002E
:10265000500200081C00000043000000F8FFFFFFCC
:102660000C0000000E0000000F0000002E00000013
:102670001001000043000000F8FFFFFF0040404051
:102680004040404040404141414141404040404045
:1026900040404040404040404040404040050202F1
:1026A00002020202020202020202020202202020B0
:1026B000202020202020200202020202020290900C
:1026C000909090901010101010101010101010100A
:1026D000101010101010101002020202020288885E
:1026E000888888880808080808080808080808086A
:1026F0000808080808080808020202024000000052
:1027000000000000000000000000000000000000C9
:1027100000000000000000000000000000000000B9
:1027200000000000000000000000000000000000A9
:102730000000000000000000000000000000000099
:102740000000000000000000000000000000000089
:102750000000000000000000000000000000000079
:102760000000000000000000000000000000000069
:102770000000000000000000000000000000000059
:0C2780000000000000000000000000004D
:04000005080001F9F5
:00000001FF
